{
  "_format": "hh-sol-artifact-1",
  "contractName": "PDFVerify",
  "sourceName": "contracts/contracts/PDFVerify.sol",
  "abi": [
    {
      "anonymous": false,
      "inputs": [
        {
          "indexed": true,
          "internalType": "bytes32",
          "name": "docHash",
          "type": "bytes32"
        },
        {
          "indexed": false,
          "internalType": "address",
          "name": "signer",
          "type": "address"
        }
      ],
      "name": "DocumentSigned",
      "type": "event"
    },
    {
      "inputs": [
        {
          "internalType": "bytes32",
          "name": "",
          "type": "bytes32"
        }
      ],
      "name": "signers",
      "outputs": [
        {
          "internalType": "address",
          "name": "",
          "type": "address"
        }
      ],
      "stateMutability": "view",
      "type": "function"
    },
    {
      "inputs": [
        {
          "internalType": "bytes32",
          "name": "_docHash",
          "type": "bytes32"
        }
      ],
      "name": "storeHash",
      "outputs": [],
      "stateMutability": "nonpayable",
      "type": "function"
    },
    {
      "inputs": [
        {
          "internalType": "bytes32",
          "name": "_docHash",
          "type": "bytes32"
        },
        {
          "internalType": "address",
          "name": "_signer",
          "type": "address"
        }
      ],
      "name": "verify",
      "outputs": [
        {
          "internalType": "bool",
          "name": "",
          "type": "bool"
        }
      ],
      "stateMutability": "view",
      "type": "function"
    }
  ],
  "bytecode": "0x6080604052348015600f57600080fd5b506104a68061001f6000396000f3fe608060405234801561001057600080fd5b50600436106100415760003560e01c8063141774ef146100465780637fe8888514610076578063b88fbd2d14610092575b600080fd5b610060600480360381019061005b91906102c8565b6100c2565b60405161006d9190610336565b60405180910390f35b610090600480360381019061008b91906102c8565b6100f5565b005b6100ac60048036038101906100a7919061037d565b610222565b6040516100b991906103d8565b60405180910390f35b60006020528060005260406000206000915054906101000a900473ffffffffffffffffffffffffffffffffffffffff1681565b600073ffffffffffffffffffffffffffffffffffffffff1660008083815260200190815260200160002060009054906101000a900473ffffffffffffffffffffffffffffffffffffffff1673ffffffffffffffffffffffffffffffffffffffff1614610196576040517f08c379a000000000000000000000000000000000000000000000000000000000815260040161018d90610450565b60405180910390fd5b3360008083815260200190815260200160002060006101000a81548173ffffffffffffffffffffffffffffffffffffffff021916908373ffffffffffffffffffffffffffffffffffffffff160217905550807ffc566ede6102b78343776b8847b3fac426f2ca3c96a1b9ead9faa5994b22b1ed336040516102179190610336565b60405180910390a250565b60008173ffffffffffffffffffffffffffffffffffffffff1660008085815260200190815260200160002060009054906101000a900473ffffffffffffffffffffffffffffffffffffffff1673ffffffffffffffffffffffffffffffffffffffff1614905092915050565b600080fd5b6000819050919050565b6102a581610292565b81146102b057600080fd5b50565b6000813590506102c28161029c565b92915050565b6000602082840312156102de576102dd61028d565b5b60006102ec848285016102b3565b91505092915050565b600073ffffffffffffffffffffffffffffffffffffffff82169050919050565b6000610320826102f5565b9050919050565b61033081610315565b82525050565b600060208201905061034b6000830184610327565b92915050565b61035a81610315565b811461036557600080fd5b50565b60008135905061037781610351565b92915050565b600080604083850312156103945761039361028d565b5b60006103a2858286016102b3565b92505060206103b385828601610368565b9150509250929050565b60008115159050919050565b6103d2816103bd565b82525050565b60006020820190506103ed60008301846103c9565b92915050565b600082825260208201905092915050565b7f416c7265616479207369676e6564000000000000000000000000000000000000600082015250565b600061043a600e836103f3565b915061044582610404565b602082019050919050565b600060208201905081810360008301526104698161042d565b905091905056fea264697066735822122055164db3dde03b97dcccd0ae524c5b785364578e64af36edd0a0184be16236b464736f6c634300081c0033",
  "linkReferences": {},
  "deployedLinkReferences": {}
}